:100000000C945E000C9486000C9486000C94860080
:100010000C9486000C9486000C9486000C94860048
:100020000C9486000C9486000C9486000C94860038
:100030000C9486000C9486000C9486000C94860028
:100040000C94E7030C9486000C9457040C94310430
:100050000C9486000C9486000C9486000C94860008
:100060000C9486000C94860060077A078F07AA0715
:10007000B5070F08160820082B083A083A083A086E
:100080003A083A083A083A083A083A083A083A0860
:100090003A083A083A083A083A083A083A083A0850
:1000A0003A083A083A083A08600775077A078F074E
:1000B000AA07B507D007DB07E607890411241FBE8E
:1000C000CFEFD8E0DEBFCDBF11E0A0E0B1E0EAE8BD
:1000D000F7E102C005900D92AE36B107D9F722E0E4
:1000E000AEE6B1E001C01D92A738B207E1F710E01B
:1000F000CEE5D0E004C02197FE010E94960BCD35DD
:10010000D107C9F70E9414050C94C30B0C9400008E
:10011000CF92DF92EF92FF920F931F93CF93DF93D3
:10012000C0916A02CD3219F4EBE6F2E002C0EAE6D1
:10013000F2E08F0120E030E0A901D801DD918D01CE
:1001400080ED8D0F8A30B0F4AAE0B0E00E949C0BE5
:10015000CD2EDD0FDD08EE08FF08DC01CB018C0D94
:100160009D1DAE1DBF1D9C01AD01205331094109EC
:100170005109E3CFA4E6B0E00E949C0BDF0121917E
:1001800030ED320F3A30D0F32E3269F511962C91C2
:10019000119730ED320F3A3030F5022E000C330B50
:1001A000205331094AE0429F8001439F100D1124E2
:1001B000012E000C220B330B600F711F821F931F47
:1001C00012960C9120ED200F2A3068F4002E000CBE
:1001D000110B00531109012E000C220B330B600F81
:1001E000711F821F931FCD3239F4909580957095C1
:1001F00061957F4F8F4F9F4FDF91CF911F910F914F
:10020000FF90EF90DF90CF9008954F925F926F92A2
:100210007F928F929F92AF92BF92CF92DF92EF9296
:10022000FF921F93CF93DF93CAE6D2E0FE01812CA9
:10023000912C5401119180ED810F8A30A8F4AAE02D
:10024000B0E0A50194010E949C0B812E110F99082A
:10025000AA08BB08860E971EA81EB91E80E3881A3E
:100260009108A108B108E6CFC501B40124E630E049
:1002700040E050E00E94740B9B01AC0160EA76E81C
:1002800081E090E00E94640B6B017C019E018991EA
:1002900090ED980F9A30D0F38E3221F5E901219636
:1002A00080E1482E87E2582E612C712CA99180EDB7
:1002B0008A0F8A30B8F40A2E000CBB0BD097A3012A
:1002C00092010E94A70BC60ED71EE81EF91EC3019D
:1002D000B2012AE030E040E050E00E94740B2901B6
:1002E0003A01E4CFC501B40124E630E040E050E03B
:1002F0000E94740B60E472E48FE090E00E94640B53
:100300004B015C01C701B6016D5F7F4F8F4F9F4F5F
:1003100026E030E040E050E00E94740BC501B401DB
:10032000620F731F841F951FDF91CF911F91FF9064
:10033000EF90DF90CF90BF90AF909F908F907F9085
:100340006F905F904F9008952FB7F894609173016C
:100350007091740180917501909176012FBF08957D
:10036000CF92DF92EF92FF920F931F93CF93DF9381
:100370006C017A018B01C0E0D0E0CE15DF0581F081
:10038000D8016D918D01D601ED91FC910190F08124
:10039000E02DC6010995892B11F02196EECF7E0143
:1003A000C701DF91CF911F910F91FF90EF90DF90E8
:1003B000CF900895089580E090E00895FC01538D5A
:1003C000448D252F30E0842F90E0821B930B54172F
:1003D00010F0CF96089501970895FC01918D828DBC
:1003E000981761F0828DDF01A80FB11D5D968C9189
:1003F000928D9F5F9F73928F90E008958FEF9FEF94
:100400000895FC01918D828D981731F0828DE80F4F
:10041000F11D858D90E008958FEF9FEF0895FC0109
:10042000918D228D892F90E0805C9F4F821B9109D6
:100430008F739927089587E791E00E940F0221E0CA
:10044000892B09F420E0822F0895FC01848DDF01BF
:10045000A80FB11DA35ABF4F2C91848D90E0019637
:100460008F739927848FA689B7892C93A089B18926
:100470008C91837080648C93938D848D981306C0C7
:100480000288F389E02D80818F7D80830895EF922B
:10049000FF920F931F93CF93DF93EC0181E0888F3E
:1004A0009B8D8C8D981305C0E889F989808185FD25
:1004B00026C0F62E0B8D10E00F5F1F4F0F73112714
:1004C000E02E8C8DE8120CC00FB607FCFACFE8893D
:1004D000F989808185FFF5CFCE010E942502F1CFF9
:1004E0008B8DFE01E80FF11DE35AFF4FF0829FB79D
:1004F000F8940B8FEA89FB89808180620AC09FB7DC
:10050000F894EE89FF896083E889F9898081837096
:10051000806480839FBF81E090E0DF91CF911F9145
:100520000F91FF90EF900895CF93DF93EC01888DAA
:100530008823C9F0EA89FB89808185FD05C0A889E7
:10054000B9898C9186FD0FC00FB607FCF5CF80816D
:1005500085FFF2CFA889B9898C9185FFEDCFCE01B7
:100560000E942502E7CFDF91CF91089580E090E0CF
:10057000892B29F00E941B0281110C940000089520
:10058000009769F0FC0101900020E9F73197AF0175
:10059000481B590BBC0187E791E00C94B00180E047
:1005A00090E008958F929F92AF92BF920F931F9306
:1005B000CF93DF93CDB7DEB7A1970FB6F894DEBF28
:1005C0000FBECDBF19A2423008F44AE08E010F5D84
:1005D0001F4F842E912CA12CB12CA50194010E94B7
:1005E000740BE62FB901CA0101501109EA3014F465
:1005F000E05D01C0E95CD801EC93232B242B252B73
:1006000061F7C8010E94C002A1960FB6F894DEBF40
:100610000FBECDBFDF91CF911F910F91BF90AF90D3
:100620009F908F9008958F929F92AF92BF92CF929A
:10063000DF92EF92FF920F931F93CF93DF936B01A3
:100640007C01142F9B01AC010E945F0B882319F0E1
:1006500082E191E027C046015701E894B7F82FEFF7
:100660003FEF4FE75FE7C501B4010E945F0B8111C7
:100670000DC02FEF3FEF4FE75FE7C501B4010E94C8
:10068000950918161CF486E191E00CC02FEF3FEF9E
:100690004FE75FE4C701B6010E94ED0A181684F423
:1006A0008AE191E0DF91CF911F910F91FF90EF9040
:1006B000DF90CF90BF90AF909F908F900C94C0022E
:1006C0002FEF3FEF4FE75FECC701B6010E9495099E
:1006D00087FDE6CF20E030E0A901C701B6010E9406
:1006E000950987FF0BC06DE287E791E00E94470202
:1006F000EC01F7FAF094F7F8F09402C0C0E0D0E013
:1007000000E060E070E080E09FE3101741F020E03F
:1007100030E040E251E40E949A090F5FF6CFA70152
:1007200096010E9429096B017C010E940C0A4B0171
:100730005C014AE00E94D202C80FD91F1123B9F10F
:10074000C501B4010E943B0A9B01AC01C701B6017F
:100750000E9428096B017C016EE287E791E00E940C
:100760004702C80FD91F20E030E040E251E4C70142
:10077000B6010E94F20A4B015C010E940C0A6B0157
:10078000E12CF12C4AE0C701B6010E94D202C80F49
:10079000D91FC701B6010E943B0A9B01AC01C501EC
:1007A000B4010E9428096B017C011150E1F6CE01D1
:1007B000DF91CF911F910F91FF90EF90DF90CF903D
:1007C000BF90AF909F908F9008950E94BE0B1F9294
:1007D0000F920FB60F9211242F933F938F939F93F5
:1007E000AF93BF938091730190917401A0917501B3
:1007F000B09176013091720123E0230F2D3720F460
:100800000196A11DB11D05C026E8230F0296A11D6A
:10081000B11D209372018093730190937401A09392
:100820007501B093760180916E0190916F01A09156
:100830007001B09171010196A11DB11D80936E01EF
:1008400090936F01A0937001B0937101BF91AF912C
:100850009F918F913F912F910F900FBE0F901F90FE
:1008600018951F920F920FB60F9211242F933F935A
:100870004F935F936F937F938F939F93AF93BF93A8
:10088000EF93FF9387E791E00E942502FF91EF919C
:10089000BF91AF919F918F917F916F915F914F9198
:1008A0003F912F910F900FBE0F901F9018951F92A0
:1008B0000F920FB60F9211242F938F939F93EF9364
:1008C000FF93E0918701F09188018081E0918D0193
:1008D000F0918E0182FD12C09081809190018F5F16
:1008E0008F7320919101821751F0E0919001F0E017
:1008F000E958FE4F958F8093900101C08081FF9150
:10090000EF919F918F912F910F900FBE0F901F909D
:100910001895E7E7F1E01382128288EE93E0A0E0F9
:10092000B0E084839583A683B78384E091E09183CC
:10093000808385EC90E09587848784EC90E09787AE
:10094000868780EC90E0918B808B81EC90E0938B9C
:10095000828B82EC90E0958B848B86EC90E0978B79
:10096000868B118E128E138E148EE4E1F2E04FEF1F
:100970005FEFBA01408351836283738310861186CF
:10098000128613868FEF99ECAAE9BBE3808B918BDB
:10099000A28BB38B808F918FA28FB38F80A391A3F3
:1009A000A2A3B3A380A791A7A2A7B3A780AB91AB43
:1009B000A2ABB3AB40AF51AF62AF73AF8FEF90E07C
:1009C00090935502809354024093580250935902D9
:1009D00060935A0270935B024093600250936102ED
:1009E000609362027093630210926802109269022F
:1009F00082E08093790210927A0210927B02109228
:100A00007C0210927D0210927E0210927F02109260
:100A1000800210928202109281021092840210923F
:100A2000830210926A020895789484B5826084BD2E
:100A300084B5816084BD85B5826085BD85B58160E2
:100A400085BD80916E00816080936E001092810060
:100A5000809181008260809381008091810081601B
:100A600080938100809180008160809380008091DC
:100A7000B10084608093B1008091B0008160809368
:100A8000B00080917A00846080937A0080917A002F
:100A9000826080937A0080917A00816080937A00EE
:100AA00080917A00806880937A001092C100E09172
:100AB0008701F091880182E08083E0918301F091C9
:100AC00084011082E0918501F09186018FEC808392
:100AD00010928F01E0918B01F0918C0186E0808370
:100AE000E0918901F0918A01808180618083E091A9
:100AF0008901F0918A01808188608083E091890179
:100B0000F0918A01808180688083E0918901F09171
:100B10008A0180818F7D80838EE191E00E94C002F6
:100B20004AE06DE070E080E090E00E94D20289E34C
:100B300091E00E94C0028CE391E00E94C00289E330
:100B400091E00E94C00289E391E00E94C002D2E0DD
:100B500001E0C12CD12C76010E94A4014B015C0163
:100B600010E00E94A401DC01CB0188199909AA09AF
:100B7000BB09883E9340A105B10508F0AFC287E7E5
:100B800091E00E940F02892B61F387E791E00E94B8
:100B9000ED01C82F80917D0290917E02A0917F028D
:100BA000B09180020196A11DB11D80937D029093AA
:100BB0007E02A0937F02B0938002C43209F46DC21A
:100BC000E0917B02C53234F4CA3071F0CD3009F0C7
:100BD00071C20AC0CA3241F0CC3209F06BC28091B6
:100BE00068028C2780936802EF3008F043C2F0E07F
:100BF000E659FD4F108280916902882309F428C1CB
:100C000020916A023FEB320F822F022E000C990BCB
:100C1000363010F4C79707C02156263018F4875590
:100C2000910901C0C097282F2295207F30916B0237
:100C30004FEB430F832F032E000C990B463010F41B
:100C4000C79707C03156363018F48755910901C04F
:100C5000C097820F909168028913F0C080917C0246
:100C6000882309F407C28091810290918202019643
:100C7000909382028093810280915C0290915D0248
:100C8000A0915E02B0915F02809358029093590246
:100C9000A0935A02B0935B02809164029091650226
:100CA000A0916602B0916702809360029093610206
:100CB000A0936202B093630280917902882309F4C1
:100CC00064C0813009F0D2C180911802909119025C
:100CD000A0911A02B0911B02809314029093150206
:100CE000A0931602B09317028091200290912102E6
:100CF000A0912202B091230280931C0290931D02C6
:100D0000A0931E02B0931F028091280290912902A5
:100D1000A0912A02B0912B02809324029093250285
:100D2000A0932602B0932702809130029091310265
:100D3000A0913202B091330280932C0290932D0245
:100D4000A0932E02B0932F02809140029091410215
:100D5000A0914202B091430280933C0290933D02E5
:100D6000A0933E02B0933F028091480290914902C5
:100D7000A0914A02B0914B028093440290934502A5
:100D8000A0934602B093470271C1809138029091BE
:100D90003902A0913A02B0913B02809334029093C1
:100DA0003502A0933602B0933702809118029091D9
:100DB0001902A0911A02B0911B0280931402909321
:100DC0001502A0931602B093170280912802909109
:100DD0002902A0912A02B0912B02809324029093C1
:100DE0002502A0932602B0932702809130029091B1
:100DF0003102A0913202B091330280932C02909381
:100E00002D02A0932E02B0932F0280915602909152
:100E10005702909355028093540280915002909112
:100E20005102A0915202B091530280934C029093D0
:100E30004D02A0934E02B0934F0218C180918302DD
:100E4000909184020196909384028093830212C150
:100E500090917A0291111CC04AE652E0A8E4B1E0F8
:100E6000CA01FC012191CF01222309F401C13D9166
:100E70002317B9F3AEE4B1E0FA018191AF01882301
:100E800009F4AEC19D918917B9F3D0937902F2C0EC
:100E9000E0917902E23009F4EDC080916A02882382
:100EA00009F4E8C020E2E29FF0011124E92B319718
:100EB000E932F10508F0DEC0EC5CFF4F0C94960BB4
:100EC0000E948800609318027093190280931A029E
:100ED00090931B020E94A40160935C0270935D02D8
:100EE00080935E0290935F02C5C091E0813409F067
:100EF00099C099C00E94050160932802709329024D
:100F000080932A0290932B020E94A40160936402B2
:100F1000709365028093660290936702ABC083353D
:100F200009F0A8C08091280290912902A0912A027C
:100F3000B0912B02B095A095909581959F4FAF4FA2
:100F4000BF4F8093280290932902A0932A02B09366
:100F50002B0290C00E940501609330027093310211
:100F6000809332029093330285C0873509F082C0A6
:100F70008091300290913102A0913202B0913302FF
:100F8000B095A095909581959F4FAF4FBF4F80939F
:100F9000300290933102A0933202B09333026AC0C0
:100FA0000E94880060934002709341028093420245
:100FB000909343025FC00E94880060934802709340
:100FC000490280934A0290934B0254C0EAE6F2E051
:100FD00020E030E0A901719080ED870D8A30B0F4F7
:100FE000AAE0B0E00E949C0B472C770C55086608DD
:100FF0007708DC01CB01840D951DA61DB71D9C0152
:10100000AD012053310941095109E5CF2093200258
:101010003093210240932202509323022BC091E08F
:1010200081330CF490E090937C0224C08AE692E035
:101030000E940209992790935702809356021AC082
:101040000E94880060935002709351028093520274
:10105000909353020FC00E948800609338027093EF
:10106000390280933A0290933B0204C081E003C0AE
:101070000093790280E090917A029F5F90937A02C8
:1010800010927B0291E0CA3209F090E090936902DD
:10109000882309F474CD11E072CD10927B02109276
:1010A0007A0210926802D09379021092690210922B
:1010B0007C0265CDEE3040F481E08E0F80937B02A0
:1010C000F0E0E659FD4FC08380916902811157CD50
:1010D00080916802C827C093680251CD112309F49A
:1010E00073C08090240290902502A0902602B090B8
:1010F000270240902C0250902D0260902E0270909A
:101100002F028091600290916102A0916202B091E1
:1011100063028F3F9F4FAF4FBF4F11F00E94A4015A
:10112000FFEF8F16F9EC9F06FAE9AF06FBE3BF0667
:1011300009F459C0C501B4010E943D0A20E034E21F
:1011400044E759E40E949A095B01182FC92FC30193
:10115000B2010E943D0A20E034E244E759E40E94D3
:101160009A093B014C0184E591E00E94C00220E015
:1011700030E04AE754E4B501812F9C2F0E94950985
:101180008823D9F12A2DEB2D512F3C2F46E0622FD9
:101190007E2F852F932F0E94130380E691E00E94FB
:1011A000C00220E030E04AE754E4B301C4010E94E9
:1011B0009509811104C0612C712C812C912C46E081
:1011C000B301C4010E9413034AE0C701B6010E94A3
:1011D000D20289E391E00E94C0020E94B602BCCC18
:1011E0001092790247CF84E591E00E94C002612C01
:1011F000712C8AE7882E94E4992E20E0E0E050E0FC
:1012000030E0C4CFFC0188279927E894219120324F
:10121000E9F3293010F02E30C8F32B3241F02D3293
:1012200039F4689404C00E942009820F911D219115
:1012300020532A30C0F31EF4909581959F4F089556
:101240007AE0979F902D879F802D910D112408950E
:101250005058BB27AA270E9440090C94B30A0E9449
:10126000A50A38F00E94AC0A20F039F49F3F19F427
:1012700026F40C94A20A0EF4E095E7FB0C949C0A69
:10128000E92F0E94C40A58F3BA176207730784074C
:10129000950720F079F4A6F50C94E60A0EF4E09593
:1012A0000B2EBA2FA02D0B01B90190010C01CA0120
:1012B000A0011124FF27591B99F0593F50F4503ECB
:1012C00068F11A16F040A22F232F342F4427585FBD
:1012D000F3CF469537952795A795F0405395C9F7D5
:1012E0007EF41F16BA0B620B730B840BBAF091508D
:1012F000A1F0FF0FBB1F661F771F881FC2F70EC02C
:10130000BA0F621F731F841F48F4879577956795FE
:10131000B795F7959E3F08F0B0CF9395880F08F0EA
:101320009927EE0F9795879508950E94780A08F4FB
:1013300081E008950E94AE090C94B30A0E94AC0AA1
:1013400058F00E94A50A40F029F45F3F29F00C9460
:101350009C0A51110C94E70A0C94A20A0E94C40A38
:1013600068F39923B1F3552391F3951B550BBB27D4
:10137000AA2762177307840738F09F5F5F4F220F19
:10138000331F441FAA1FA9F335D00E2E3AF0E0E810
:1013900032D091505040E695001CCAF72BD0FE2F5A
:1013A00029D0660F771F881FBB1F261737074807EE
:1013B000AB07B0E809F0BB0B802DBF01FF279358A6
:1013C0005F4F3AF09E3F510578F00C949C0A0C94C4
:1013D000E70A5F3FE4F3983ED4F3869577956795E7
:1013E000B795F7959F5FC9F7880F911D96958795DB
:1013F00097F90895E1E0660F771F881FBB1F6217FA
:1014000073078407BA0720F0621B730B840BBA0BB7
:10141000EE1F88F7E09508950E94CC0A88F09F5748
:1014200098F0B92F9927B751B0F0E1F0660F771F08
:10143000881F991F1AF0BA95C9F714C0B13091F0FE
:101440000E94E60AB1E008950C94E60A672F782F0F
:101450008827B85F39F0B93FCCF3869577956795C3
:10146000B395D9F73EF490958095709561957F4F2F
:101470008F4F9F4F0895E89409C097FB3EF49095D5
:101480008095709561957F4F8F4F9F4F9923A9F05D
:10149000F92F96E9BB279395F695879577956795EC
:1014A000B795F111F8CFFAF4BB0F11F460FF1BC030
:1014B0006F5F7F4F8F4F9F4F16C0882311F096E9C3
:1014C00011C0772321F09EE8872F762F05C0662371
:1014D00071F096E8862F70E060E02AF09A95660F2A
:1014E000771F881FDAF7880F9695879597F90895E3
:1014F000990F0008550FAA0BE0E8FEEF1616170625
:10150000E807F907C0F012161306E407F50798F08C
:10151000621B730B840B950B39F40A2661F0232BA5
:10152000242B252B21F408950A2609F4A140A69521
:101530008FEF811D811D089597F99F6780E870E006
:1015400060E008959FEF80EC089500240A94161639
:10155000170618060906089500240A9412161306A1
:10156000140605060895092E0394000C11F488232F
:1015700052F0BB0F40F4BF2B11F460FF04C06F5F4B
:101580007F4F8F4F9F4F089557FD9058440F551F21
:1015900059F05F3F71F04795880F97FB991F61F0F5
:1015A0009F3F79F087950895121613061406551F6C
:1015B000F2CF4695F1DF08C0161617061806991FD8
:1015C000F1CF86957105610508940895E894BB27CD
:1015D00066277727CB0197F908950E94780A08F4C7
:1015E0008FEF08950E94050B0C94B30A0E94A50A80
:1015F00038F00E94AC0A20F0952311F00C949C0A5C
:101600000C94A20A11240C94E70A0E94C40A70F3F5
:10161000959FC1F3950F50E0551F629FF001729F97
:10162000BB27F00DB11D639FAA27F00DB11DAA1FA6
:10163000649F6627B00DA11D661F829F2227B00DF3
:10164000A11D621F739FB00DA11D621F839FA00D7E
:10165000611D221F749F3327A00D611D231F849FCE
:10166000600D211D822F762F6A2F11249F57504025
:101670009AF0F1F088234AF0EE0FFF1FBB1F661FA0
:10168000771F881F91505040A9F79E3F510580F069
:101690000C949C0A0C94E70A5F3FE4F3983ED4F361
:1016A000869577956795B795F795E7959F5FC1F70D
:1016B000FE2B880F911D9695879597F908950E94A6
:1016C000780A880B990B0895DB018F939F930E94F2
:1016D0009C0BBF91AF91A29F800D911DA39F900D78
:1016E000B29F900D11240895A1E21A2EAA1BBB1BD4
:1016F000FD010DC0AA1FBB1FEE1FFF1FA217B307DE
:10170000E407F50720F0A21BB30BE40BF50B661FF3
:10171000771F881F991F1A9469F7609570958095B7
:1017200090959B01AC01BD01CF010895EE0FFF1F05
:101730000590F491E02D09940E94AF0BA59F900DA8
:10174000B49F900DA49F800D911D11240895B7FFA3
:101750000C949C0B0E949C0B821B930B0895A29FE0
:10176000B001B39FC001A39F700D811D1124911D75
:10177000B29F700D811D1124911D089581E090E0AC
:0A178000F8940C94C30BF894FFCF0B
:10178A00000000004702B001DE0194020F02ED01E1
:10179A0001026E616E00696E66006F7666005369BB
:1017AA006D706C652054696E79475053206C69627C
:1017BA007261727920762E20000D0A0054657374C6
:1017CA00696E6720475053004750524D43004750B7
:1017DA00474741004C61746974756465203D200077
:0E17EA00204C6F6E676974756465203D2000A9
:00000001FF
