:100000000C945D000C9485000C9485000C94850084
:100010000C9485000C9485000C9485000C9485004C
:100020000C9485000C9485000C9485000C9485003C
:100030000C9485000C9485000C9485000C9485002C
:100040000C94C5020C9485000C9485000C948500DA
:100050000C9485000C9485000C9485000C9485000C
:100060000C9485000C94850000000008000201003B
:100070000003040700000000000000000000000072
:10008000250028002B0000000000240027002A0083
:10009000040404040404040402020202020203032E
:1000A0000303030301020408102040800102040836
:1000B0001020010204081020970311241FBECFEF67
:1000C000D8E0DEBFCDBF11E0A0E0B1E0E6E8F7E0A8
:1000D00002C005900D92AC32B107D9F721E0ACE235
:1000E000B1E001C01D92AD34B207E1F710E0CDE5FB
:1000F000D0E004C02197FE010E94B603CC35D107A1
:10010000C9F70E940F030C94C1030C94000090E007
:10011000FC01EC55FF4F2491FC01E057FF4F849107
:10012000882399F090E0880F991FFC01EA57FF4F50
:10013000A591B491FC01E458FF4F859194918FB73C
:10014000F894EC91E22BEC938FBF089590E0FC01C2
:10015000E859FF4F2491FC01EC55FF4F3491FC010D
:10016000E057FF4FE491EE2309F43CC0222339F11C
:10017000233091F038F42130A9F0223001F584B514
:100180008F7D12C0273091F02830A1F02430B9F4CF
:10019000809180008F7D03C0809180008F77809355
:1001A00080000DC084B58F7784BD09C08091B000F8
:1001B0008F7703C08091B0008F7D8093B000F0E016
:1001C000EE0FFF1FE458FF4FA591B4919FB7F8942D
:1001D000611104C08C913095382302C0EC913E2B04
:1001E0003C939FBF08953FB7F8948091310190915F
:1001F0003201A0913301B091340126B5A89B05C00E
:100200002F3F19F00196A11DB11D3FBFBA2FA92F95
:10021000982F8827820F911DA11DB11DBC01CD0112
:1002200042E0660F771F881F991F4A95D1F70895FE
:100230008F929F92AF92BF92CF92DF92EF92FF92F6
:100240000E94F3004B015C0188EEC82E83E0D82E9B
:10025000E12CF12C0E94F300DC01CB0188199909F3
:10026000AA09BB09883E9340A105B10598F321E096
:10027000C21AD108E108F10888EE880E83E0981EC2
:10028000A11CB11CC114D104E104F10419F7FF90C1
:10029000EF90DF90CF90BF90AF909F908F90089598
:1002A000CF92DF92EF92FF920F931F93CF93DF9342
:1002B0006C017A018B01C0E0D0E0CE15DF0581F042
:1002C000D8016D918D01D601ED91FC910190F081E5
:1002D000E02DC6010995892B11F02196EECF7E0104
:1002E000C701DF91CF911F910F91FF90EF90DF90A9
:1002F000CF900895CF93DF93EC0160E08E810E9450
:10030000A60061E08E810E94A60060E08E810E94BE
:10031000A6008BE891E00197F1F7DF91CF91089566
:10032000CF92DF92EF92FF920F931F93CF93DF93C1
:100330006C017C0187E0E80EF11CC0E0D0E0062FE4
:1003400010E0B8010C2E02C0759567950A94E2F78B
:100350006170F70181917F010E94A6002196C4304F
:10036000D10579F7C601DF91CF911F910F91FF90D1
:10037000EF90DF90CF900C947A01CF92DF92EF92C2
:10038000FF920F931F93CF93DF93EC01F62E642F10
:100390008C810E94A6008D818F3F19F060E00E9441
:1003A000A6008F850F2D10E084FF25C06E0187E029
:1003B000C80ED11CE12CF12CB8010E2C02C0759591
:1003C00067950A94E2F76170F60181916F010E94CE
:1003D000A600FFEFEF1AFF0A88E0E816F10461F7C4
:1003E000CE01DF91CF911F910F91FF90EF90DF90A1
:1003F000CF900C947A01B80184E0759567958A9541
:10040000E1F7CE010E9490016F2DCE01DF91CF91D7
:100410001F910F91FF90EF90DF90CF900C9490017F
:1004200040E0682F85E391E00C94BD01CF93DF930A
:10043000623028F090914401986090934401609359
:1004400048011092490190E490934A0180934B0136
:1004500090E0805C9F4F80934C01809139010E9415
:10046000870080913A018F3F11F00E9487008091B0
:100470003B010E948700C5E3D1E09E012553314036
:100480008091440184FD03C084E090E002C088E0D4
:1004900090E021962817390724F48E810E94870066
:1004A000ECCF8BE39DE00197F1F760E0809139019B
:1004B0000E94A60060E080913B010E94A60080910E
:1004C0003A018F3F19F060E00E94A600809144013C
:1004D00084FD20C063E085E391E00E949001CBE4BD
:1004E000D6E4CE010197F1F763E085E391E00E9445
:1004F00090012197F1F763E085E391E00E9490017C
:1005000083E592E00197F1F762E085E391E00E94D4
:10051000900115C080620E9410028BE496E401975E
:10052000F1F78091440180620E94100283E592E01D
:100530000197F1F78091440180620E94100280913E
:10054000440180620E94100284E0809345018CE0A7
:100550000E94100281E00E9410028BE39FE101974C
:10056000F1F782E08093460186E0DF91CF910C9411
:10057000100241E00E94BD0181E090E008950895DD
:1005800080E090E008950E94BC031F920F920FB686
:100590000F9211242F933F938F939F93AF93BF9309
:1005A00080912D0190912E01A0912F01B0913001E9
:1005B00030912C0123E0230F2D3720F40196A11D4B
:1005C000B11D05C026E8230F0296A11DB11D209381
:1005D0002C0180932D0190932E01A0932F01B093B5
:1005E00030018091310190913201A0913301B0919D
:1005F00034010196A11DB11D809331019093320108
:10060000A0933301B0933401BF91AF919F918F912B
:100610003F912F910F900FBE0F901F9018957894D7
:1006200084B5826084BD84B5816084BD85B58260F7
:1006300085BD85B5816085BD80916E0081608093A8
:100640006E00109281008091810082608093810011
:100650008091810081608093810080918000816021
:10066000809380008091B10084608093B10080917C
:10067000B00081608093B00080917A0084608093A4
:100680007A0080917A00826080937A0080917A006B
:10069000816080937A0080917A00806880937A00EC
:1006A0001092C10062E080E20E94160282E00E9485
:1006B00010028BE39FE10197F1F74FE050E06CE00F
:1006C00071E085E391E00E945001E0914801E23041
:1006D00010F4E15001C0E1E0F0E0EB5CFE4F8489F2
:1006E00080680E9410024EE050E06CE171E085E30A
:1006F00091E00E9450010E94180100E010E0C5E066
:10070000D0E08CE10E9410020E9418012197C9F7E5
:10071000C5E0D0E088E10E9410020E9418012197F4
:10072000C9F70115110559F30E940000E8CFE5E370
:10073000F1E01382128284E091E0918380838CE067
:1007400084838FEF85838BE0868385E0878384E0D5
:10075000808783E0818782E08287138614861586EE
:100760001686178661E080E10C941602EE0FFF1FDB
:100770000590F491E02D099481E090E0F8940C94B8
:06078000C103F894FFCF55
:1007860000000000B9025001C002BF02486F6C6150
:100796002052657061727469646F720054752065C9
:0C07A600737461646F2065733A200000DA
:00000001FF
